S01200003531395F4C6162322E312E7372656374
S11300000C9434000C943E000C943E000C943E007E
S11300100C943E000C943E000C943E000C943E0064
S11300200C943E000C943E000C9460000C943E0032
S11300300C943E000C943E000C943E000C943E0044
S11300400C943E000C943E000C943E000C943E0034
S11300500C943E000C943E000C943E000C943E0024
S11300600C943E000C943E0011241FBECFEFD8E048
S1130070DEBFCDBF0E9489000C9490000C94000058
S1130080189902C02D9A08952D98089585B5826017
S113009085BD16BC089586B58A3F28F09BB180E4DF
S11300A089278BB916BC0895E1E8F0E0808181606E
S11300B080838081808380E280936F0078940895A8
S11300C01F920F920FB60F9211248F939F93EF9369
S11300D0FF9395B180E2892785B9E1E8F0E090814A
S11300E080E489278083FF91EF919F918F910F90F6
S11300F00FBE0F901F90189580E284B981E085B9F6
S113010080E48AB985B185B90E9446000E945400F2
S113011008950E947C000E9440000E944B00FBCF87
S1070120F894FFCF7D
S9030000FC
